:100000000C9434000C9451000C943E000C943E006F
:100010000C943E000C943E000C943E000C943E0068
:100020000C943E000C943E000C943E000C943E0058
:100030000C943E000C943E000C943E000C943E0048
:100040000C943E000C943E000C943E000C943E0038
:100050000C943E000C943E000C943E000C943E0028
:100060000C943E000C943E0011241FBECFEFD8E04C
:10007000DEBFCDBF0E9440000C9474000C940000C1
:1000800052988FEF84B980916900809369008091C4
:1000900069008260809369007894E89A81E085B96C
:1000A000FFCF1F920F920FB60F9211242F933F9301
:1000B0008F939F93EF93FF9385B191E0892785B943
:1000C00088EB9BE020E931E0F9013197F1F70197E6
:1000D000D9F7FF91EF919F918F913F912F910F90C1
:0C00E0000FBE0F901F901895F894FFCFF2
:00000001FF
