:100000000C9434000C9458000C9446000C94460058
:100010000C9446000C9446000C9446000C94460048
:100020000C9446000C9446000C9446000C94460038
:100030000C9446000C9446000C9446000C94460028
:100040000C9446000C9446000C9446000C94460018
:100050000C9446000C9446000C9446000C94460008
:100060000C9446000C94460011241FBECFEFD8E03C
:10007000DEBFCDBF11E0A0E0B1E001C01D92A13014
:10008000B107E1F70E9448000C947D000C94000039
:1000900052988FEF84B980916900826080936900E3
:1000A00080916900809369007894E89A15B8FFCF31
:1000B0001F920F920FB60F9211242F933F938F939D
:1000C0009F93EF93FF93809100018F5F80930001D6
:1000D00085B988EE93E020E931E0F9013197F1F735
:1000E0000197D9F7FF91EF919F918F913F912F91B8
:0E00F0000F900FBE0F901F901895F894FFCF41
:00000001FF
