:100000000C9434000C9465000C948B000C94460006
:100010000C9446000C9446000C9446000C94460048
:100020000C9446000C9446000C9446000C94460038
:100030000C9446000C9446000C9446000C94460028
:100040000C9446000C9446000C9446000C94460018
:100050000C9446000C9446000C9446000C94460008
:100060000C9446000C94460011241FBECFEFD8E03C
:10007000DEBFCDBF11E0A0E0B1E001C01D92A13014
:10008000B107E1F70E9448000C94B2000C94000004
:10009000529853988FEF84B9809169008260809361
:1000A0006900809169008160809369008091690096
:1000B0008860809369008091690084608093690002
:1000C0007894E89AE99A15B8FFCF1F920F920FB66D
:1000D0000F9211242F933F938F939F9335B12091CB
:1000E000000181E090E0022E02C0880F991F0A945F
:1000F000E2F7382B35B92F5F20930001263010F03E
:10010000109200019F918F913F912F910F900FBE00
:100110000F901F9018951F920F920FB60F921124F7
:100120002F933F938F939F9335B12091000181E0EE
:1001300090E0022E02C0880F991F0A94E2F7809582
:10014000832385B92F5F20930001263010F0109291
:1001500000019F918F913F912F910F900FBE0F90B3
:080160001F901895F894FFCFE1
:00000001FF
