:100000000C9434000C943E000C943E000C943E0082
:100010000C943E000C943E000C943E000C943E0068
:100020000C943E000C943E000C943E000C943E0058
:100030000C943E000C943E000C943E000C943E0048
:100040000C943E000C943E000C943E000C943E0038
:100050000C943E000C943E000C943E000C943E0028
:100060000C943E000C943E0011241FBECFEFD8E04C
:10007000DEBFCDBF0E9440000C9494000C940000A1
:1000800084B18E6184B951E061E070E0A0E9B1E033
:1000900020C045B1852F90E09B01052E02C0220FA4
:1000A000331F0A94E2F7422B45B925B10197FB01B2
:1000B00002C0EE0FFF1F8A95E2F7CF0180958223E1
:1000C00085B980ED97E0FD013197F1F70197D9F7F8
:1000D0005F5F5530F0F244E050E025B1CB01042ED3
:1000E00002C0880F991F0A94E2F78095822385B990
:1000F00025B141505040CB01042E02C0880F991FFA
:100100000A94E2F74F5F5F4F282B25B980ED97E007
:10011000FD013197F1F70197D9F741505040413037
:0C0120005105D9F651E0B5CFF894FFCF9F
:00000001FF
