:100000000C943C000C9459000C9459000C94590029
:100010000C9459000C9459000C9459000C945900FC
:100020000C9459000C9459000C9459000C945900EC
:100030000C9459000C9459000C9459000C945900DC
:100040000C9459000C9459000C9459000C945900CC
:100050000C9459000C9459000C9459000C945900BC
:100060000C9459000C9459003132334134353642E6
:10007000373839432A30234411241FBECFEFD8E04C
:10008000DEBFCDBF11E0A0E0B1E0E2EFF6E002C0DC
:1000900005900D92A036B107D9F721E0A0E6B1E0B6
:1000A00001C01D92AB36B207E1F70E94A6020C9484
:1000B00077030C940000F999FECF92BD81BD60BD1D
:1000C000FA9AF99A0895F999FECF92BD81BDF89AEE
:1000D00080B50895429A85E08A95F1F7000042982C
:1000E0000895CF93C82F662311F0409A01C040981D
:1000F0004198529A539A549A559A5D985C985B9895
:100100005A98C7FD5D9AC6FD5C9AC5FD5B9AC4FD11
:100110005A9A0E946A005D985C985B985A98C3FD51
:100120005D9AC2FD5C9AC1FD5B9AC0FD5A9A0E941D
:100130006A005A9A5B9A5C9A5D9ACF9108954098AA
:10014000419A5298539854985598429A85E08A95C6
:10015000F1F700004A9B02C080E101C080E04B99AA
:1001600080624C9980644D998068429895E09A9598
:10017000F1F70000429A95E09A95F1F700004A994C
:1001800081604B9982604C9984604D998860429857
:1001900008950E949F0087FDFCCF85E18A95F1F7C5
:1001A00000000C949F00CF93C82F0E94C90060E00C
:1001B0008C2FCF910C947100CF93C82F0E94C9004F
:1001C00061E08C2FCF910C947100611102C08058B6
:1001D00001C080540C94D3000E94C90090E008959F
:1001E00081E00C94D30082E00C94D300CF93C82F0D
:1001F0000E94C900CA3049F4803410F080E001C088
:1002000080E48058CF910C94D30061E08C2FCF9183
:100210000C947100CF93DF93EC018991882319F03E
:100220000E94F600FACFDF91CF910895CF93DF932C
:10023000FC018491EF012196882321F00E94F600B1
:10024000FE01F7CFDF91CF910895CF93C82F389A51
:10025000399A3A9A529A539A549A559A8FEF99EF3B
:100260000197F1F700C000005B9A5A9A0E946A0059
:100270008FE19EE40197F1F700C000000E946A0040
:100280008FEF90E00197F1F700C000000E946A0034
:100290008FEF90E00197F1F700C000005A980E949C
:1002A0006A008FEF90E00197F1F700C0000088E24C
:1002B0000E94D30088E00E94D3000E94F00086E0F4
:1002C0000E94D3008C2FCF910C94D300CF93DF9357
:1002D0001F92CDB7DEB780EF898383B1998185FB0B
:1002E000882780F9892B89831C9902C080E001C08E
:1002F00082E09981892B89831B9902C080E001C02B
:1003000084E09981892B89831A9902C080E001C019
:1003100088E09981892B898389810F90DF91CF9122
:10032000089584B160E2862784B984B150E18527BD
:1003300084B984B148E0842784B984B134E0832748
:1003400084B984B122E0822784B984B191E08927FD
:1003500084B98AB180588AB97AB180E478277AB9A9
:1003600075B1672765B965B1562755B955B14527A8
:1003700045B945B1342735B935B1232725B925B15C
:10038000922795B99BB190589BB99BB189278BB99E
:1003900008952598249823982298219A209A579A6C
:1003A000569A2D9A2C9A2B9A2A9A299828985F98CF
:1003B0005E980895CF93DF9300D000D01F92CDB701
:1003C000DEB71A8219821C821D820E946601809506
:1003D0008D838D81882309F462C00E9491018FE092
:1003E0008B83199902C080E001C080E19B81892B39
:1003F0008B83189902C080E001C080E29B81892B29
:100400008B8389B1881F8827881F8295880F880F62
:10041000807C9B81892B8B834E9902C080E001C038
:1004200080E89B81892B8B838B8180958C830E94B4
:1004300091018D8180FF02C01D820FC08D8181FFDF
:1004400002C081E009C08D8182FF02C082E004C049
:100450008D8183FF02C083E08D838C8184FF02C085
:100460001C820FC08C8185FF02C081E009C08C8195
:1004700086FF02C082E004C08C8187FF02C083E057
:100480008C838D81EC81F0E094E0899FE00DF11D7B
:100490001124E859FF4FE491F0E0FA83E983898160
:1004A0009A810F900F900F900F900F90DF91CF9146
:1004B0000895CF93DF93C091600181E08C0F80930A
:1004C0006001D0E00E94DA01CF59DE4F888380912D
:1004D00060018A3010F010926001DF91CF91089591
:1004E0000E94660191E08F3F09F490E0892F819589
:1004F00090E008950E947002892BE1F708958091A1
:100500006101082E000C990B29E030E0F901EF5948
:10051000FE4F4081042E000C550B8417950721F4E3
:100520002150310999F7089580E090E008950E94E4
:100530007F0221E0892B09F420E0822F819590E051
:1005400008950E947F02892BE1F70895CF93DF93EE
:10055000CDB7DEB72A970FB6F894DEBF0FBECDBF7A
:100560000E94C9018CE00E9425010E94F00088E0F1
:10057000882E6E0123E0C20ED11C5E018BE0A80E16
:10058000B11C0E94F00080E091E00E940A0161E04D
:1005900080E00E94E50080E191E00E940A010E9453
:1005A000DA018134B9F50E94F00081E291E00E9405
:1005B0000A0161E080E00E94E5009FEFE9E6F8E1D2
:1005C0009150E040F040E1F700C000000E94DA01E5
:1005D000182F8823D9F30E94F60060ED610F80E0A8
:1005E00090E00E945B002FEF87EA91E62150804067
:1005F0009040E1F700C000000E94F00080E391E02D
:100600000E940A01EFEFFDE329E4E150F0402040B1
:10061000E1F76AC0823419F60E94F0008DE391E0A0
:100620000E940A0161E080E00E94E5008FEF93EDF7
:10063000E0E381509040E040E1F700C000001A8202
:100640001982F601282D11922A95E9F78E010F5F84
:100650001F4F78017E2C701A8AE07816A1F00E9454
:10066000DA01982E8823C1F30E94F600F7019192D7
:100670007F01FFEF29E688E1F15020408040E1F75B
:1006800000C00000E7CF9FEFE9E6F8E19150E040BD
:10069000F040E1F700C000000E94F0008EE491E01D
:1006A0000E940A0161E080E00E94E5002FEF83EDE7
:1006B00090E3215080409040E1F700C0000080E0CE
:1006C00090E00E946300F82EF80181918F018F0D58
:1006D0000E94F6000A151B05B9F7FFEF23E284EF2D
:1006E000F15020408040E1F700C000004ACFF8946C
:0206F000FFCF3A
:1006F2004368616E6765206B6579203A20410A0084
:10070200456E6372797074206D7367203A20420AD5
:1007120000456E746572206E6577204B65790A001C
:100722004B6579204368616E6765640A00456E74A3
:10073200657220796F757220746578740A00596F3A
:1007420075722043697068657220546578740A0076
:00000001FF
