:100000000C9434000C943E000C943E000C943E0082
:100010000C943E000C943E000C943E000C943E0068
:100020000C943E000C943E000C943E000C943E0058
:100030000C943E000C943E000C943E000C943E0048
:100040000C943E000C943E000C943E000C943E0038
:100050000C943E000C943E000C943E000C943E0028
:100060000C943E000C943E0011241FBECFEFD8E04C
:10007000DEBFCDBF0E9440000C94AE000C94000087
:10008000389884B18F6384B98AB18C638AB98091BE
:1000900064008E7F8093640080917C008F778093D2
:1000A0007C0080917C00806480937C0080917C0047
:1000B000806280937C0080917C00816080937C00D2
:1000C00080917A00806880937A0080917A008F7D99
:1000D00080937A0080917A00806180937A00809189
:1000E0007A00846080937A0080917A0082608093A5
:1000F0007A0080917A00816080937A0080917B0001
:100100008F7B80937B0080917E00826080937E0055
:1001100080917A00806480937A0080917A0084FFD5
:10012000FCCF809178002091790030E0220F331FBE
:10013000220F331F829586958695837090E0822BDF
:10014000932B85B924E0969587952A95E1F78BB98D
:1001500080917A00806180937A00DACFF894FFCFA3
:00000001FF
