:100000000C9434000C943E000C943E000C943E0082
:100010000C943E000C943E000C943E000C943E0068
:100020000C943E000C943E000C943E000C943E0058
:100030000C943E000C943E000C943E000C943E0048
:100040000C943E000C943E000C943E000C943E0038
:100050000C943E000C943E000C943E000C943E0028
:100060000C943E000C943E0011241FBECFEFD8E04C
:10007000DEBFCDBF0E944C000C94A3000C94000086
:1000800084E786BD14BC82E085BDA89BFECF14BC6E
:1000900015BC81E085BB08951F93259A10E285B1B8
:1000A000812785B90E9440000E9440000E944000C4
:1000B0000E9440000E9440000E9440000E944000B8
:1000C0000E9440000E9440000E9440000E944000A8
:1000D0000E9440000E9440000E9440000E94400098
:1000E0000E9440000E9440000E9440000E94400088
:1000F0000E9440000E9440000E9440000E94400078
:100100000E9440000E9440000E9440000E94400067
:100110000E9440000E9440000E9440000E94400057
:100120000E9440000E9440000E9440000E94400047
:100130000E9440000E9440000E9440000E94400037
:0A0140000E944000ACCFF894FFCFFE
:00000001FF
