:100000000C9434000C943E000C943E000C943E0082
:100010000C943E000C943E000C943E000C943E0068
:100020000C943E000C943E000C943E000C943E0058
:100030000C943E000C94AE000C943E000C943E00D8
:100040000C943E000C943E000C943E000C943E0038
:100050000C943E000C943E000C943E000C943E0028
:100060000C943E000C943E0011241FBECFEFD8E04C
:10007000DEBFCDBF0E944B000C94C0000C9400006A
:1000800016BC14BC85E085BDA89BFECF14BC15BC76
:1000900081E085BB0895EF92FF920F931F93CF935A
:1000A000DF93789481E080936F008CED9BE09093D8
:1000B0008500809384001092800084E0809381000A
:1000C00084B18E6384B901E081E0E82EF12C1FC079
:1000D00045B1802F90E09701002E02C0220F331F00
:1000E0000A94E2F7422B45B925B10197A70102C056
:1000F000440F551F8A95E2F7CA018095822385B97E
:1001000010E00E9440001F5F1233D9F70F5F0530E7
:10011000F8F2C4E0D0E025B1C7010C2E02C0880F70
:10012000991F0A94E2F78095822385B925B121971A
:10013000C7010C2E02C0880F991F0A94E2F721967E
:10014000282B25B910E00E9440001F5F1233D9F719
:100150002197C130D105F9F601E0BACF1F920F9275
:100160000FB60F9211248F939F9385B190E2892748
:1001700085B99F918F910F900FBE0F901F9018958A
:04018000F894FFCF21
:00000001FF
