:100000000C9434000C9446000C9446000C9446006A
:100010000C9446000C9446000C9446000C94460048
:100020000C9446000C9446000C9446000C94460038
:100030000C9446000C9446000C9446000C94460028
:100040000C945D000C9446000C9446000C94460001
:100050000C9446000C9446000C9446000C94460008
:100060000C9446000C94460011241FBECFEFD8E03C
:10007000DEBFCDBF11E0A0E0B1E001C01D92A13014
:10008000B107E1F70E9448000C946E000C94000048
:10009000789481E080936E0085E086BD14BC84E096
:1000A00085BD259A90E285B1892785B91092000116
:1000B000809100018931E0F3F6CF1F920F920FB6C5
:1000C0000F9211248F93809100018F5F8093000124
:1000D0008F910F900FBE0F901F901895F894FFCF3F
:00000001FF
