:100000000C9434000C9446000C9446000C9446006A
:100010000C9446000C9446000C9446000C94460048
:100020000C9446000C9446000C9446000C94460038
:100030000C9446000C946C000C9446000C94460002
:100040000C947E000C9446000C9446000C944600E0
:100050000C9446000C9446000C9446000C94460008
:100060000C9446000C94460011241FBECFEFD8E03C
:10007000DEBFCDBF11E0A0E0B1E001C01D92A13014
:10008000B107E1F70E9448000C948F000C94000027
:10009000789421E020936F008EEE95E89093850090
:1000A000809384001092800084E0809381002093EC
:1000B0006E0085E086BD14BC83E085BD84B18E638F
:1000C00084B990E185B1892785B9109200018091AA
:1000D00000018233E0F3F6CF1F920F920FB60F921A
:1000E00011248F939F9385B190E2892785B99F91C1
:1000F0008F910F900FBE0F901F9018951F920F9227
:100100000FB60F9211248F93809100018F5F80931F
:1001100000018F910F900FBE0F901F901895F894CB
:02012000FFCF0F
:00000001FF
