:100000000C9434000C943E000C943E000C943E0082
:100010000C943E000C943E000C943E000C943E0068
:100020000C943E000C943E000C943E000C943E0058
:100030000C943E000C943E000C943E000C943E0048
:100040000C943E000C943E000C943E000C943E0038
:100050000C943E000C943E000C943E000C943E0028
:100060000C943E000C943E0011241FBECFEFD8E04C
:10007000DEBFCDBF0E945F000C94C1000C94000055
:100080009093C5008093C40088E18093C100E2ECA6
:10009000F0E08081877F80838081866080830895FF
:1000A000982F8091C00085FFFCCF9093C6000895E3
:1000B0008091C00087FFFCCF8091C6000895DF9338
:1000C000CF93CDB7DEB7C85CD0400FB6F894DEBF93
:1000D0000FBECDBF87E690E00E944000AE014F5FAB
:1000E0005F4F9E012B593F4F6AE08091C00087FF10
:1000F000FCCF8091C600898390E00BC09F5F809108
:10010000C00087FFFCCF8091C600FA01E90FF11D06
:100110008083FA01E90FF11D80818A3079F790E040
:100120000FC08E2F81548A3118F080528A3120F40A
:10013000A20FB31FED5F02C0A20FB31FEC939F5F2E
:10014000A92FB0E0FA01EA0FFB1FE081EA3049F77E
:10015000A20FB31FEC9390E007C08091C00085FF11
:10016000FCCFE093C6009F5FF901E90FF11DE0812C
:10017000EA3099F78091C00085FFFCCF6093C600FC
:06018000B4CFF894FFCF9C
:00000001FF
