:100000000C9434000C9449000C9449000C94490061
:100010000C9449000C9449000C9449000C9449003C
:100020000C9449000C9449000C9449000C9449002C
:100030000C9449000C9449000C9449000C9449001C
:100040000C9449000C9449000C9449000C9449000C
:100050000C9449000C9449000C9449000C944900FC
:100060000C9449000C94490011241FBECFEFD8E036
:10007000DEBFCDBF11E0A0E0B1E0EEE2F1E002C0F2
:1000800005900D92AA34B107D9F70E946A000C942A
:1000900095000C9400009093C5008093C40088E103
:1000A0008093C100E2ECF0E08081877F80838081D3
:1000B000866080830895982F8091C00085FFFCCFD3
:1000C0009093C60008958091C00087FFFCCF809177
:1000D000C6000895DF93CF93CDB7DEB7C954D040A3
:1000E0000FB6F894DEBF0FBECDBF87E690E00E944A
:1000F0004B00DE011196E0E0F1E089E401900D9201
:100100008150E1F790E09E012F5F3F4FF901E90F29
:10011000F11DE0818091C00085FFFCCFE093C60017
:0E0120009F5F993498F390E0F1CFF894FFCFF1
:10012E00453135303433204268616779612054207F
:10013E0050205920453135303438204368616E6483
:10014E00726173697269205320412047204C20450B
:10015E003135333633205468696C616B7261746863
:0A016E006E652053204420420A0071
:00000001FF
